:100000000C9467170C94D2280C94AB280C948F177F
:100010000C948F170C948F170C948F170C948F17C8
:100020000C948F170C948F170C948F170C948F17B8
:100030000C948F170C948F170C948F170C948F17A8
:100040000C9415280C948F170C9458290C94322971
:100050000C948F170C948F170C948F170C948F1788
:100060000C94C6170C948F17204150525320494EC0
:10007000464F20002047505320494E464F20004015
:10008000004C6F616420636F6E66696700230053E4
:10009000656E64696E672064617461005349443A17
:1000A0000053594D3A0043414C3A00202020004D66
:1000B000002E00416C743A004C6F6E3A004C617433
:1000C0003A00202020005361743A0054494D3A0010
:1000D0002E004150523A00526563656976696E6739
:1000E0002064617461002020202020202020202016
:1000F0002020202020202020002020202020202020
:1001000020002000200054523A0054543A003D0090
:100110002B002D007F1F8207840684068407827FC0
:10012000188207840684068407827F20278E0F901A
:100130000D920D9001800881018E0182068310844A
:1001400004850E8504850E8504850E8504850E853F
:1001500004850E8504850E8504850E8504850E852F
:1001600004850E8504850E8504850E8504850E851F
:1001700004850E85048410840482028E0282048029
:1001800002920280069609940C9002811B831985C5
:10019000198519851985198519851985198519856F
:1001A000198519851985198519851A830B8E018181
:1001B0000B900D920D900F8E28278E0F900D920DA3
:1001C0009001800881018E01820683108404850ECF
:1001D0008504850E8504850E8504850E8504850EAF
:1001E0008504850E8504850E8504850E8504850E9F
:1001F0008504850E8504850E8504850E8504850E8F
:1002000085048410840482028E0282048002920299
:100210008006960680019407820190028104841171
:100220008304850E8504850E8504850E8504850E60
:100230008504850E8504850E8504850E8504850E4E
:100240008504850E8504850E8504850E8504850E3E
:100250008504850E8504850E85058310830781013D
:100260008E01810B900D920D900F8E28278E0F908E
:100270000D920D9001800C8E01821B8419851985C9
:10028000198519851985198519851985198519857E
:100290001985198519851A841C821E805D811B832E
:1002A000198519851985198519851985198519855E
:1002B0001985198519851985198519851A831C8150
:1002C0007F24278E0F900D920D900B81018E0B8352
:1002D0001A8519851985198519851985198519852D
:1002E0001985198519851985198519841A82028E2F
:1002F0000A8002920A960680019407820190028188
:100300000484118304850E8504850E8504850E857D
:1003100004850E8504850E8504850E8504850E856D
:1003200004850E8504850E8504850E8504850E855D
:1003300004850E8504850E8504850E85058310834E
:100340000781018E01810B900D920D900F8E282751
:100350008E0F900D920D900B81018E0B831A8519D3
:10036000851985198519851985198519851985199D
:100370008519851985198519841A82028E0A8002C9
:10038000920A9609940C9002811B8319851985198C
:10039000851985198519851985198519851985196D
:1003A000851985198519851A830B8E01810B900D8E
:1003B000920D900F8E287F1980088112820683107B
:1003C0008404850E8504850E8504850E8504850EBE
:1003D0008504850E8504850E8504850E8504850EAD
:1003E0008504850E8504850E8504850E8504850E9D
:1003F0008504850E85048410840482028E028204A2
:100400008002920280069609940C9002811B831947
:1004100085198519851985198519851985198519EC
:1004200085198519851985198519851A831C817F78
:1004300024278E0F900D920D9001800C8E01821B4F
:1004400084198519851985198519851985198519BD
:1004500085198519851985198519851A840A8E02C9
:100460008208920280069609940C9002811B8319DF
:10047000851985198519851985198519851985198C
:1004800085198519851985198519851A830B8E019A
:10049000810B900D920D900F8E28278E0F900D924C
:1004A0000D9001800C8E01821B8419851985198598
:1004B000198519851985198519851985198519854C
:1004C000198519851A840A8E02820892028006967E
:1004D000068001940782019009841A85198519857F
:1004E000198519851985198519851985198519851C
:1004F0001985198519851A831C81018E0F900D921B
:100500000D900F8E287F19801D821B8419851985F7
:1005100019851985198519851985198519851985EB
:100520001985198519851B831D811E805D811B839B
:1005300019851985198519851985198519851985CB
:100540001985198519851985198519851A831C81BD
:100550007F24278E0F900D920D9001800881018ECF
:1005600001820683108404850E8504850E8504852A
:100570000E8504850E8504850E8504850E8504850B
:100580000E8504850E8504850E8504850E850485FB
:100590000E8504850E8504850E85048410840482EE
:1005A00014820480188024801E82158104841183A3
:1005B00004850E8504850E8504850E8504850E85CB
:1005C00004850E8504850E8504850E8504850E85BB
:1005D00004850E8504850E8504850E8504850E85AB
:1005E00004850E8504850E85058310830781018EA1
:1005F00001810B900D920D900F8E287F7F7F7B8263
:100600000784068406840782107F7F7F7F3F7F7F79
:1006100010860C83028B0983018D0883008F078865
:1006200005860686098406850B8405840D8305846A
:100630000D8305840D8404830F8304830F83048357
:100640000F8304830F8304830F8304830F83048346
:100650000F8304830F8304830E8404840D83058435
:100660000C8405850B840586098406880586068327
:10067000008F0783018D0883028B098304860C8316
:100680001883188318831883188318831883188392
:100690001883327F7F7F058607860A830289048A52
:1006A0000883008C028C0783008D008E06870589E5
:1006B000058406850886088405840A840A830584DF
:1006C0000A840A8305830B830B8305830B830B83C7
:1006D00005830B830B8305830B830B8305830B83BC
:1006E0000B8305830B830B8305830B830B830583AC
:1006F0000B830B8305830B830B8305830B830B8396
:1007000005830B830B8305830B830B8305830B838B
:100710000B8305830B830B8305830B830B8305837B
:100720000B830B8305830B830B8305830B830B8365
:1007300005830B830B837F7F7F7A7F7B880F8D0AF6
:100740009009910785068506840A8405830C830534
:10075000830C8305830C83168315840E8B09900705
:1007600092068D01830588078305840B8304840C1E
:100770008304830D8304830D8304830C8404830B1F
:1007800085048409860584068A038F0184048D020A
:1007900084058A058307867F7F357F1A840984094B
:1007A00084098409847F3D84098409840984098437
:1007B0007F7422880F8C0C8F09910786058605852A
:1007C000098405840B8404830D8303840D830383D0
:1007D0000F8302830F8302830F8302830F830283BD
:1007E0000F8302840D8403830D8403840B850484AA
:1007F0000986048605880594068E0083078B02838C
:100800000A86048316831583168303830E8303836A
:100810000D8403840C8305830B8405840985068578
:10082000058608900A8E0C8B11867F7F33248511F4
:100830008B0C8F0991078605860684098405840B35
:100840008404840B8404830D8304830D8304830D4B
:100850008304840B8405830B830684098407850540
:1008600085098F0B8D0B8F09910785078505840BF3
:100870008404830D8303840D8402830F8302830F1A
:100880008302830F8302830F8302830F8302840D0D
:100890008402840D8403840B8404860786059307F1
:1008A00091098F0D897F7F313796039603960396C2
:1008B0001683158315831583158414841484158376
:1008C0001584148415841484158315841583158464
:1008D0001584158315841583168315841583168353
:1008E0001683168315841583168316837F7F5324FE
:1008F00086118B0C8E0A900886058506850984056D
:10090000840B8305830C8403840D8303830E83038C
:100910008316831583168304860A83028B0783005C
:100920008E0694058805860486098404850B840355
:10093000840D8303840D8402830F8302830F83025B
:10094000830F8302830F8302830F8303830D84034A
:10095000830D8304840B8405840985058605860739
:1009600091098F0C8C0F887F7F313A910891089103
:1009700008910882168316831683168217821782BF
:10098000168302870B83008B0991089207860586E0
:100990000684098505830B841683168416831683C3
:1009A00016831683168303830E8303830D840383C8
:1009B0000D8304840B8405840985058605860791CB
:1009C000098F0B8D0F877F7F324583158414851324
:1009D000861386128711830083118300831083019D
:1009E000830F8302830E8402830E8303830D8304AB
:1009F000830C8305830B8405830B8306830A83079B
:100A00008309840783098308830883098307830A8A
:100A1000830797029702970297118316831683160E
:100A200083168316831683168316837F7F4A238754
:100A30000F8D0B900891078605860684098405842E
:100A40000B8404840B8404830D8304830D8304834B
:100A50000D8315841584148414850D8B0E89108BD9
:100A60000E8C148615841684158402830F830283EA
:100A70000F8302830F8302840D8402840C85038418
:100A80000B8404850985058605860791098F0B8DE2
:100A90000F877F7F4D2487108C0B8F099108850568
:100AA000860684098406840A8306830B8404840CE6
:100AB0008304830D8304830D8304830D83168315C0
:100AC0008415841484148513851286118710881068
:100AD000880F881087118612851385148414841555
:100AE00083168315960396039603967F7F45298286
:100AF0001782168316831584148512870D8C0D8C2E
:100B00000D8700830D840383168316831683168353
:100B1000168316831683168316831683168316830D
:100B200016831683168316831683168316831683FD
:100B300016831683168316837F7F4C23870F8D0BB6
:100B40008F0991078605860684098406830B830531
:100B5000840B8404830D8304830D8304830D83033A
:100B6000830F8302830F8302830F8302830F830229
:100B7000830F8302830F8302830F8302830F830219
:100B8000830F8302830F8302830F8302830F830209
:100B9000830F8302830F8303830D8304830D8304F8
:100BA000830D8304840B8405830B830684098406E8
:100BB0008605860791098F0B8D0F877F7F327F7F98
:100BC0007F558409840984098409847F387F7F459F
:100BD0008A058A058A058A7F7F7F2B7F7F7F7F3FFB
:100BE0001911830981018107810382038000800636
:100BF000810181008007837F7F2C01830A820A8123
:100C00000A810A810A810A810A810A810A810A818C
:100C10000B810B82088109810A810A810A810A817C
:100C20000A810A810A810A81098207831304810AE1
:100C3000810A810A810A810A810A810A810A810A5C
:100C4000810A810A810A810A810A810A810A810A4C
:100C5000810A810A810A810A810A810A810A811234
:100C60000683078209810A810A810A810A810A8131
:100C70000A810A810A81098108820B810B810A811C
:100C80000A810A810A810A810A810A810A810A820B
:100C90000A830E4889018908820782078207820831
:100CA00081088207820782078208890189544D8260
:100CB000068200810681018106810281048103810F
:100CC00004810381048104810281058102810581FF
:100CD00002810681008107810081078100810882ED
:100CE000098209820981098206840783144E8106DC
:100CF00081018204820281048104810281058200D3
:100D000082068408820884068200820581028104AA
:100D100081048102820482018106815B6B810482ED
:100D200004810081048204810081048000800481A8
:100D300001810281008102810281028100810281A0
:100D4000028102810081028102810280028002818F
:100D50000381008102810081048100810281008180
:100D6000048100810281008105820482068204825E
:100D7000068204827F01478106810081068101810C
:100D80000481028104810281048103810281048142
:100D9000028104810281058100810681008106842F
:100DA00007820882585581068102810681028106E8
:100DB000810281068102810681028106810281060B
:100DC00081028106810281068102810582028203FD
:100DD000830386008104840181620F810481048180
:100DE00004810285008502810481048104810481DB
:100DF000048104810481048104830382314A8405CF
:100E000087028203810281058101810A84078607A6
:100E1000840981018105810182038202870485564C
:100E2000318100820185018204810581058105816E
:100E30000581058105810581058105813B5E830171
:100E40008104860081038301840381058202820676
:100E50008102810781028107810281078102820666
:100E60008103810582038301840486008106830156
:100E7000810C810C810C810C810C811F5B810183B1
:100E80000681008604840183038205810381068232
:100E90000281078102810781028107810281068226
:100EA000028205810384018303810086048101831A
:100EB00006810C810C810C810C81285E84078804DA
:100EC00083028303810681028206820181088101F7
:100ED00081088101810881018206820281068103E5
:100EE000830283048807846D5B8101840581008609
:100EF00004830382038205810381068103810681C5
:100F000003810681038106810381068103810681B5
:100F10000381068103810681038106816A7F058141
:100F20000183038305810085008604830284028295
:100F30000382048204810381058105810381058187
:100F40000581038105810581038105810581038177
:100F50000581058103810581058103810581058165
:100F60000381058105810381058105817F1B07813F
:100F70000381038103810381038103810381038151
:100F80000381038103810381038103810381038141
:100F900003812B1981098109810981098104820159
:100FA0008103820281028203810182048100820521
:100FB0008505860482018104810282038103810305
:100FC00081038202810481028104825307810381AB
:100FD00003810F81038103810381038103810381E5
:100FE00003810381038103810381038103810381E1
:100FF0000381038101830182080781038103810F3B
:1010000081038103810381038103810381038103C0
:101010008103810381038103812B10810C810C8169
:101020000C810C810C81018405810086048303827C
:101030000382058103810681038106810381068184
:101040000381068103810681038106810381068174
:1010500003810681038106816A5E83018104860023
:101060008103830184038105820281078102810754
:101070008102810781028107810282068103810545
:10108000820383018404860081068301810C81022E
:101090008107810281068203820382048906851307
:1010A0000A8302840281058105810386008602810C
:1010B0000581058105810581058105810581058100
:1010C000058105813B5883078704830183038105DC
:1010D0008102820681018B018B01810B820B8105CC
:1010E0008202830183048707836619810C810C8146
:1010F0000C810C81068301810486008103830184B5
:1011000003810582028206810281078102810781B3
:1011100002810781028206810381058203830184A3
:1011200004860081068301816A5283068703830156
:101130008203810581018209810A810A810A82056F
:10114000810281058102830182048706835E10810A
:101150000C810C810C810C810C810183068100863D
:101160000484018303820581038106820281078151
:101170000281078102810781028106820282058144
:101180000384018303810086048101836D578505F3
:101190008804810482038105810B8105870389020C
:1011A0008205810281068102810681028203830316
:1011B00086008302840282610B830385018201829F
:1011C0000081038100810381008201820185038304
:1011D0007F1A7F7F1D8C2610820781008105810286
:1011E0008103810481018106817F6F098403840664
:1011F00081068106810681068106810681068106B7
:1012000081068106810681068106810681068106A6
:101210008106810681038403841401800B800B8185
:101220000B800B800B810B800B800B810B800B8064
:101230000B810B800B800B810B800B800B810B8053
:101240000B800B810B800B800B810B800E0B8403BA
:101250008403810681068106810681068106810656
:101260008106810681068106810681068106810646
:10127000810681068106810684038412118C028C0A
:101280000C820B820B820C810C810C820B820B82F4
:101290000C810C810C820B820B820B820C8D018DD8
:1012A000700F820982008207820281078103820512
:1012B0008204810581068103810782018208810100
:1012C000810A830B830C810D810D810D810D810DB0
:1012D000810D810D81760F81088101820682028154
:1012E00006810481048105820282068102810881CF
:1012F000008109840A820B820A81008108820082AF
:1013000007810281068104810482048203810681AF
:1013100002820682008208826816820682068200A5
:101320008106820681018106820681018204810094
:10133000810482028104810081048103810481008F
:10134000810481038104810081048103820281027E
:10135000810282048102810281028105810281026F
:10136000810281058102810281028105820081045E
:10137000810082068100810481008107810081044F
:101380008100810781008104810081078306830831
:10139000820682098206827F250E820882008108E9
:1013A0008101810881018108810281068103810612
:1013B0008103810681048104810581048105810402
:1013C00081068102810781028107810281088100F3
:1013D000810981008109840A820B826E138109814F
:1013E00003810981038109810381098103810981C5
:1013F00003810981038109810381098103810981B5
:1014000003810981038109810381098103810981A4
:101410000381098103820782048205820689088785
:101420007F020D9B05810B810B810B810B810B8151
:101430000B810B810B810B810B810B810B810B814C
:101440000B810B816714850789048205820381075C
:1014500081038107810381078202820D840B860B41
:10146000850C830D82018208810281088102810836
:101470008102830582038A068673128B048C0381A2
:101480000882028109810281098102810981028128
:10149000098102810881038C038B04810782038107
:1014A0000881038108820281098102810981028108
:1014B00009810281098102810981771886098A06DA
:1014C0008304830482088203810A8102820A8201E2
:1014D000810C8101810C8101810C8101810C8101D0
:1014E000810C8101810C81018206800282028105CA
:1014F0008201810382058504830483068C078601AB
:1015000082108073118A048B038107820281088113
:10151000028108810281088102810881028107829B
:10152000028B038A04810D810D810D810D810D8156
:101530000D810D817B1886098A0683048304820845
:101540008203810A8102820A8201810C8101810C5D
:101550008101810C8101810C8101810C8101810C4F
:101560008101820A8202810A810382088204830443
:1015700083068A09867F0A13820881038208810311
:101580008307810384068103810081068103810032
:101590008205810381018204810381028104810328
:1015A000810282038103810382028103810481021B
:1015B0008103810482018103810582008103810608
:1015C00081008103810684038107830381088203EC
:1015D0008108827F16820A8203830883038308833B
:1015E00003830883038100810681008103810081D8
:1015F00006810081038100810681008103810181D0
:1016000004810181038101810481018103810181C0
:1016100004810181038102810281028103810281AF
:10162000028102810381028102810281038103819F
:10163000008103810381038100810381038103848D
:1016400003810381048204810381048204817F1465
:101650000E810A810A810A810A810A810A810A812E
:101660000A810A810A810A810A810A810A810A8122
:101670000A8A018A5A12810882028107820381063E
:10168000820481058205810482068103820781022A
:10169000820881018209810083098708830182070A
:1016A0008203820681058106810582058106820406
:1016B00081078203810882028109827615810A816D
:1016C0000A810A810A810A810A810A810A810A81C2
:1016D0000A810A81018106810181068101810681D9
:1016E00001820482028804865E07810381038103EC
:1016F00081038103810381038103810381038103CA
:10170000810381038103810381038103812B138181
:101710000981038109810381098103810981038191
:1017200009810381098103810981038D038D03816F
:101730000981038109810381098103810981038171
:101740000981038109810381098103810981038161
:1017500009817F1886098A0682058304820881042C
:1017600081098202820F8110811081058702810523
:101770008702810B8102810B8102820A8103810928
:10178000820382078304830484058900810785031B
:10179000807F06108B028B02810C810C810C810CE6
:1017A000810C810C8A038A03810C810C810C810CD1
:1017B000810C810C810C8173118C028C02810D8152
:1017C0000D810D810D810D810D8B038B03810D81A9
:1017D0000D810D810D810D810D8C028C7013890797
:1017E0008B058106830481088203810981038109B5
:1017F0008202810A8102810A8102810A8102810AB0
:101800008102810A8102810A8102810982028109A1
:10181000810381088203810683048B05897F031776
:1018200086088A058304830382088103810A810173
:10183000820A8101810F810F810F810F810F810B3E
:101840008101820A81028109820282088104830463
:1018500083058A08867F02128A058C03810782032A
:101860008108810381088103810881038108810344
:10187000810782038A058C03810782038109810223
:101880008109810281098102810981028107820324
:101890008C038A7A15830B830B830A81018109816A
:1018A0000181098101810881038107810381078109
:1018B000038106810581058105810589048B0381EA
:1018C00007810381078102810981018109810082E9
:1018D00009826F21880D82068209820A8107810DA3
:1018E0008105810F810480068301800381028104C8
:1018F00081028303810281038104810481018104C7
:1019000081048104810181038105810481018103B6
:1019100081058104810181038104810481028103A5
:101920008104810481028103810481038104810394
:101930008102820281058104830184078117811756
:10194000810B81098205830D876C108504880382D1
:10195000038201820581018106810181068109825C
:101960000882088208820981098209822382098209
:1019700009825F62820C820C830C820D81088207CF
:1019800083078208827F155186018613860186634C
:101990006B8208820783078208810D820D820C8288
:1019A0000C827F0C2B8203820382348203820382A7
:1019B0000580048104800481172B82038203823412
:1019C0008203820382321F85058804820382028299
:1019D00005810281078101810781018107810182DF
:1019E000058202820383028A048401810B810181C2
:1019F00006810281068103810482038805866520B1
:101A000083078705810381048105810381058103A3
:101A10008105810481038106850687048203820291
:101A2000810781018107810181078101810781028D
:101A300082038203890585651C8B018B0A810A82DA
:101A400009820A810A820A810A810B810A820A813B
:101A50000B810B810A810B810B816920840688032D
:101A6000820481038106810281068101810B81014B
:101A700084048A0283038202820582018107810134
:101A8000810781018107810281058202820382042C
:101A9000880585651D89038903810B810B810B8175
:101AA0000084058902830382028106820B810B81F7
:101AB0000B810181078101820582028203820389F1
:101AC00005856524810A82098309830881008107CD
:101AD00081018106810281068102810581038104E1
:101AE00081048103810581038B018B09810B810BAB
:101AF000810B81641F85068704820382038105812F
:101B0000028205810B810A82078408850B820B8182
:101B1000018107810181078101820582028203829E
:101B200003890585651F8505890382038202820674
:101B30008101810781018107810B810A8208830766
:101B40008406840783088209820A810B8B018B62D9
:101B500022810B810A82078507850B810B810B810E
:101B60000B810B810B810B810B810B810B810B8115
:101B70000B8166208307870483018303810581022B
:101B8000820582018107810181078101810781012D
:101B9000810781018107810181078101810781011D
:101BA000820582028105810383018304870783669E
:101BB0000D810581058005810581058005810581EF
:101BC00005800581058105800581058105800581E8
:101BD00005810580058105812D7182038203823292
:101BE000588501856871820382038205800481041F
:101BF000800481175381078107810487018704814D
:101C000007810781671081098109810680018101AF
:101C10008002890385068306810181048201820492
:101C20008003807F36078106800681068006810555
:101C30008105810681058105810581058105810573
:101C40008105810581058104810581058105800566
:101C500081058005810D0D81058005810580058147
:101C60000581058104810581058105810581058145
:101C70000581058105810581068105810581068033
:101C800006810680068107068202820282048003A2
:101C90008102817415840A86088202820781048188
:101CA0000781048107810382088101820A840A83F3
:101CB0000B850381038201820281028203820181FA
:101CC00002810584038106830381078104820485E0
:101CD0000388018203850482762D820781058605AB
:101CE00080068102810481058104810281068104CC
:101CF00081028007810481018108810281028009BB
:101D00008601800C82028102820C80018609800299
:101D1000810281088101810481078002810481069A
:101D20008102810481058104810281068005860586
:101D300081078207807F0C1F850589038203820249
:101D40008107810181078101810B820B810A87074D
:101D5000810B810B810B810A810B860280018B0133
:101D6000810483632E8101810C8002800D800280BA
:101D70000C8101810C8002800D800280088D08801A
:101D800002800D8002800D800280088D0880028014
:101D90000D8002800C8101810C8002800D80028008
:101DA0000C8101817F0D0980018003800180038007
:101DB0000180038001800380018003800180038013
:101DC00001807F110A8105810581058105810581D9
:101DD00005810581058105810581058105811581C3
:101DE000058105813A7F010000304848300000003D
:101DF00000000000000000000000324C0000000065
:101E000000000000000000004020202020202010C2
:101E10002020202020204000004040404040404002
:101E20004040404040400000102020202020204022
:101E300020202020202010000000000000FC0408CA
:101E4000304080FC0000000000000000008484841A
:101E500084844C340408700000000000008888501E
:101E6000205088880000000000000000008282826C
:101E70009292AA44000000000000000000828282CA
:101E800082442810000000000000000000848484C8
:101E900084844C34000000000000004040E04040DA
:101EA00040404030000000000000000000708880CA
:101EB00070088870000000000000000000B0C880BA
:101EC00080808080000000000000000000344C840E
:101ED00084844C34040406000000000000B0C88470
:101EE0008484C8B0808080000000000000384482F4
:101EF00082824438000000000000000000B0C88466
:101F000084848484000000000000000000ACD292B1
:101F100092929292000000000000C0404040404079
:101F2000404040400000000000008080808890A079
:101F3000C0A09088000000000000001000301010C9
:101F40001010101010906000000000400040404051
:101F500040404040000000000000808080B0C88405
:101F600084848484000000000000000000304C8461
:101F700084844C340408700000003048404040E045
:101F80004040404000000000000000000038448451
:101F9000F8804438000000000000000404344C8441
:101FA00084844C34000000000000000000384480AD
:101FB00080804438000000000000008080B0C884A9
:101FC0008484C8B000000000000000000070080415
:101FD000748C8C7400000000000040404020000021
:101FE00000000000000000000000000000000000F1
:101FF0000000000000FF00000000000000000000E2
:102000000000000000000000102844000000000054
:1020100000000000000000000000000000000000C0
:10202000000000000000000000E020202020202010
:1020300020202020E00000000004040808101020E8
:10204000204040808000000000E080808080808010
:1020500080808080E00000000000FE020408101074
:10206000204080FE00000000000082828244281090
:102070001010101000000000000082824428101090
:102080002844828200000000000000000080808060
:102090008080808880888049005500550022002279
:1020A00000000000000000000000828282824444A0
:1020B00028281010000000000000828282828282A4
:1020C00082824438000000000000FE101010101042
:1020D0001010101000000000000038448280601CC6
:1020E00002824438000000000000F884828284F8F4
:1020F000908884820000000000003844828282823E
:1021000082824438080600000000F88482828284BB
:10211000F8808080000000000000384482828282C3
:1021200082824438000000000000C2C2A2A2929243
:102130008A8A8686000000000000000000C180C17D
:1021400080A280A280948094808880888080808013
:1021500080000000000000000000808080808080FF
:10216000808080FC000000000000848890A0C0A057
:102170009088848200000000000002020202020235
:1021800002824438000000000000E040404040402F
:10219000404040E000000000000084848484FC840F
:1021A000848484840000000000003C428080809C85
:1021B0008282423C000000000000FE808080F880A7
:1021C00080808080000000000000FE808080FC8015
:1021D000808080FE000000000000F88482828282FD
:1021E000828284F80000000000003C4280808080F1
:1021F0008080423C000000000000F8848284F88463
:10220000828284F800000000000010102828444456
:102210007C8282820000000000003C4299A5A5A5B6
:10222000A59E403E000000000000384482020408E1
:102230001010001000000000000000804020100876
:102240001020408000000000000000000000F800A6
:10225000F80000000000000000000008102040808E
:1022600040201008000000000000000000C0C00076
:10227000C0C04080000000000000000000C0C0009E
:10228000C0C0000000000000000038448282463ACE
:102290000202047800000000000038448244384400
:1022A000828244380000000000007E02020404081C
:1022B000081010100000000000003C408080B8C4EE
:1022C00082824438000000000000FC808080F80416
:1022D00002028478000000000000040C14244484EE
:1022E000FE040404000000000000788402043804A6
:1022F00002028478000000000000384482020418C2
:10230000204080FE0000000000001030501010102F
:102310001010107C000000000000384444828282CB
:102320008244443800000000000404080810102013
:1023300020404080800000000000000000000000FD
:102340000000C0C00000000000000000000000F815
:10235000000000000000000000000000000000007D
:102360000000C0C04080000000000000002020F8F5
:10237000202000000000000000000010925438549B
:102380009210000000000000C0201008080404049F
:10239000040408081020C0000C10204040808080F9
:1023A0008080404020100C00004040408000000031
:1023B000000000000000000000002050888850202D
:1023C000528C8C7300000000000061919264081030
:1023D000264989860000000000003C4240407040D1
:1023E000704040FE000000000000242424FF24244C
:1023F000FF2424240000000000A0A0A00000000092
:10240000000000000000000000004040404040404C
:1024100040400040000000000000000000000000FC
:10242000000000000000000C0C0C0C0C0C0C0C0C40
:102430000C0C0C0C0C0C0C20202020202020202028
:10244000200C0C0C0C0C0C0C0C0C0C0C0C0C0C0CB8
:102450000C0C0C0C0C0C0C0C0C0C0C0C0C0C0C0CBC
:102460000C0C0C0C0C0C0C0C0C0C0C0C0C0C0C0CAC
:102470000C0C0C0C0C0C0C0C0C0C0C0C0C0C0C0C9C
:102480000C0C0C0C0C0C0C090609060906090609B3
:1024900006090609060906090609060906090609C4
:1024A000060906FB050906520505059A043104B61E
:1024B000034F03C2026C02B9012C01140109060981
:1024C0000609060906090609060906090609060994
:1024D0000609060906090609060906090609060984
:1024E0000609060906090609060906090609060974
:1024F0000609060906090609060906090609060964
:102500000609060906090609060906090609060953
:102510000609060906090609060906090609060943
:102520000609060906090609060906090609060933
:102530000609060906090609060906090609060923
:10254000060906090609060C0C0C0C0C0C0C0C0CEC
:102550000C0C0C0C110F0C1B1B1B1B1B1B1B1B1B2C
:102560001B0F0C0C0C0C0C0C0C0C0C0C0C0C0C0C99
:102570000C0C0C0C0C0C0C0C0C0C0C0C0C0C0C0C9B
:102580000C0C0C0C0C0C0C0C1B0C0C0C0C0C0C0C7C
:102590000C0C0C0C2A0C0C1D0C0C0C0C0C0C0C0C4C
:1025A0000C0C0C070C0C0CDB0BDB0BDB0BDB0BDB69
:1025B0000BDB0BDB0BDB0BDB0BDB0BDB0BDB0BDBEB
:1025C0000BCD0BBE0BDB0B3B0BEE0A950A2E0AC99B
:1025D000096A09EF08A8082D08B2079A07DB0BDB88
:1025E0000BDB0BDB0BDB0BDB0BDB0BDB0BDB0BDBBB
:1025F0000BDB0BDB0BDB0BDB0BDB0BDB0BDB0BDBAB
:102600000BDB0BDB0BDB0BDB0BDB0BDB0BDB0BDB9A
:102610000BDB0BDB0BDB0BDB0BDB0BDB0BDB0BDB8A
:102620000BDB0BDB0BDB0BDB0B3A07DB0BDB0BDB1F
:102630000BDB0BDB0BDB0BDB0BDB0BDB0BDB0BDB6A
:102640000B9306DB0BDB0B0E06DB0BDB0BDB0BDB79
:102650000BDB0BDB0BDB0BDB0BDB0BDB0BDB0BDB4A
:102660000BDB0BDB0BDB0B050808130E1511060843
:10267000080C0A070807080E0E0E0E0E0E0E0E0EA0
:102680000E07070E090E0D1910111212100F13125A
:10269000060D110D151213101311100E120F170F36
:1026A0001010090D090C0D090E0F0D0F0E080F0F5C
:1026B00006060C06160F0F0F0F080C070E0C120D56
:1026C0000D0C0D0D0D0F01E51DC41DA61D641D375C
:1026D0001DD91C941C871C561C251C051CF41BE5CD
:1026E0001BE01BD91BB01B731B501B251BF41AC30B
:1026F0001A941A5B1A381AFF19C619B919A4199035
:1027000019871973194A19D318941857181F18DD07
:1027100017B817931753170E17E916BC16751650EE
:1027200016D415771535150415BB147A14451422E3
:1027300014DC1399131913D612A1127C124D121A1C
:1027400012EB11D711D211B8118D114E112911EAC6
:1027500010C510A01059101A10F90FCC0F930F6E5E
:102760000F1D0FE80EBB0E7C0E3D0E200EFD0DDA88
:102770000DA50D760D1C0DED0CAE0C930C600C2D03
:102780000CFA0BE10BE00B00000000003E5B4F5B1E
:102790003E3E6B4F6B3E1C3E7C3E1C183C7E3C1804
:1027A0001C577D571C1C5E7F5E1C00183C1800FFE8
:1027B000E7C3E7FF0018241800FFE7DBE7FF304816
:1027C0003A060E2629792926407F050507407F0510
:1027D000253F5A3CE73C5A7F3E1C1C08081C1C3E07
:1027E0007F14227F22145F5F005F5F06097F017FF5
:1027F000006689956A606060606094A2FFA2940898
:10280000047E040810207E201008082A1C08081CDA
:102810002A08081E101010100C1E0C1E0C30383E1A
:102820003830060E3E0E06000000000000005F007B
:10283000000007000700147F147F14242A7F2A1247
:10284000231308646236495620500008070300002D
:102850001C2241000041221C002A1C7F1C2A08085F
:102860003E08080080703000080808080800006072
:10287000600020100804023E5149453E00427F405E
:102880000072494949462141494D331814127F10BD
:1028900027454545393C4A49493141211109073607
:1028A00049494936464949291E00001400000040A4
:1028B000340000000814224114141414140041229E
:1028C000140802015909063E415D594E7C1211124D
:1028D0007C7F494949363E414141227F4141413E49
:1028E0007F494949417F090909013E414151737FAF
:1028F0000808087F00417F41002040413F017F08D8
:102900001422417F404040407F021C027F7F040828
:10291000107F3E4141413E7F090909063E41512158
:102920005E7F09192946264949493203017F01037F
:102930003F4040403F1F2040201F3F4038403F6302
:102940001408146303047804036159494D43007F5C
:102950004141410204081020004141417F0402012D
:1029600002044040404040000307080020545478CF
:10297000407F284444383844444428384444287F1D
:10298000385454541800087E090218A4A49C787F77
:102990000804047800447D40002040403D007F1042
:1029A00028440000417F40007C047804787C0804BF
:1029B00004783844444438FC182424181824241873
:1029C000FC7C08040408485454542404043F442460
:1029D0003C4040207C1C2040201C3C4030403C447B
:1029E000281028444C9090907C4464544C44000837
:1029F0003641000000770000004136080002010265
:102A000004023C2623263C1EA1A161123A4040202C
:102A10007A385454555921555579412154547841A7
:102A2000215554784020545579400C1E5272123969
:102A30005555555939545454593955545458000022
:102A4000457C410002457D420001457C40F029243F
:102A500029F0F0282528F07C545545002054547C5A
:102A6000547C0A097F493249494932324848483240
:102A7000324A4848303A4141217A3A42402078006F
:102A80009DA0A07D39444444393D4040403D3C2414
:102A9000FF2424487E4943662B2FFC2F2BFF092956
:102AA000F620C0887E090320545479410000447DFB
:102AB000413048484A32384040227A007A0A0A7245
:102AC0007D0D19317D2629292F28262929292630EF
:102AD000484D4020380808080808080808382F1012
:102AE000C8ACBA2F102834FA00007B000008142A62
:102AF000142222142A1408AA005500AAAA55AA557D
:102B0000AA000000FF00101010FF00141414FF00B2
:102B10001010FF00FF1010F010F0141414FC00143B
:102B200014F700FF0000FF00FF1414F404FC141459
:102B300017101F10101F101F1414141F0010101056
:102B4000F0000000001F101010101F10101010F0E7
:102B500010000000FF101010101010101010FF10C7
:102B6000000000FF140000FF00FF00001F1017000E
:102B700000FC04F414141710171414F404F40000E7
:102B8000FF00F714141414141414F700F714141499
:102B9000171410101F101F141414F4141010F01038
:102BA000F000001F101F0000001F14000000FC14A4
:102BB0000000F010F01010FF10FF141414FF141098
:102BC00010101F00000000F010FFFFFFFFFFF0F0EB
:102BD000F0F0F0FFFFFF0000000000FFFF0F0F0FFD
:102BE0000F0F38444438447C2A2A3E147E020206E1
:102BF00006027E027E0263554941633844443C0428
:102C0000407E201E2006027E020299A5E7A5991C9F
:102C10002A492A1C4C7201724C304A4D4D303048C2
:102C2000784830BC625A463D3E494949007E010120
:102C3000017E2A2A2A2A2A44445F444440514A44B5
:102C40004040444A51400000FF0103E080FF000083
:102C500008086B6B083612362436060F090F06007B
:102C60000018180000001010003040FF0101001F84
:102C700001011E00191D1712003C3C3C3C000000E5
:102C8000000017240724F723E723D723C723B723FC
:102C9000A7239723872377236723572347233723A4
:102CA000272317230723F722E722D722C722B72299
:102CB000A72297228722772267225722472237228C
:102CC000272217220722F721E721D721C721B72181
:102CD000A721972187217721672157213721272194
:102CE00017210721F720E720D720C720B720A720EA
:102CF000872077206720572047203720272007206C
:102D0000E71FD71FC71FB71FA71F971F871F771F53
:102D1000671F571F471F371F271F171F071FF71E44
:102D2000E71ED71EC71EB71EA71E971E871E771E3B
:102D3000671E571E471E371E271E171E071EF71D2C
:102D4000E71D00000000000000000008822C6F2D2D
:102D5000100000000000C72667261A0000000000CF
:102D6000A7254725308724272430000000000006CF
:102D700003040908090903070708060306050708ED
:102D800008080808080808080803030606060809D2
:102D90000808080808080808040808070A080808B6
:102DA0000808080808080A080808040704070904AE
:102DB00007070707070607070405060408070807AB
:102DC00008060605070808060707050305080604A0
:102DD000E010021C07123732292D29252B3900015A
:102DE0000310E110031D07062E2C292D2E2E373F30
:102DF0000000021013800A298064022A04000000E7
:102E00007F2B040000009F022A04000200812B0493
:102E1000000100A00F0180961180FFB103012C2D4D
:102E2000B203012C2DB306012C2D012C2DB401076A
:102E3000C003A20284C101C5C2020A00C3028A2AD9
:102E4000C4028AEEC5010E20003601C83A010553BE
:102E5000746172742072656D6F746520646973703B
:102E60006C6179005361766520636F6E66696700F7
:102E700000000000240027002A00000000002500B8
:102E800028002B0000000000230026002900040475
:102E90000404040404040202020202020303030302
:102EA00003030102040810204080010204081020DE
:102EB00001020408102000000008000201000003C5
:102EC00004070000000000000000C12FBE2B1124E9
:102ED0001FBECFEFD8E0DEBFCDBF24E0A2E5B2E059
:102EE00001C01D92AB3FB207E1F712E0A0E0B1E0F4
:102EF000E8E1FDE602C005900D92A235B107D9F7D1
:102F000017E1C6E6D7E104C02197FE010E94CC314B
:102F1000C536D107C9F70E94CE2B0C947F360C948E
:102F2000000080E090E0089585ED8093BC008091E2
:102F3000BC0084FDFCCF10921903089564E670E094
:102F400080E090E00E94DB2781E0809330030895C9
:102F500061E070E080E090E00E94DB2782E00E9468
:102F6000292B892B91F484E00E94292B20912D0399
:102F700030912E03019719F42150310902C02F5FBF
:102F80003F4F30932E0320932D0308951F920F92ED
:102F90000FB60F9211242F933F934F935F936F932C
:102FA0007F938F939F93AF93BF93EF93FF93809102
:102FB000B900887F803609F49CC068F5883209F42E
:102FC0005BC090F4803109F454C038F4882309F4CC
:102FD000F6C0883009F44DC0F6C0883109F44CC001
:102FE000803209F45DC0EFC0803409F468C048F451
:102FF000803309F455C0883309F0E5C08093D302CB
:10300000D8C0803509F44FC0883509F45DC08834D4
:1030100009F0D9C0D6C0883909F4C7C0A8F48837E8
:1030200009F467C038F4883609F463C0803709F4BE
:1030300060C0C9C0883809F4B8C0803909F45FC0DD
:10304000803809F0C0C05BC0803B09F486C038F40A
:10305000803A09F466C0883A09F47FC0B4C0803C65
:1030600009F4A7C0883C09F4A4C0883B09F48AC0CD
:10307000AAC08091F60210C09091F5028091F402EE
:10308000981770F5E091F50281E08E0F8093F502BC
:10309000F0E0EC52FD4F80818093BB0085EC86C050
:1030A0008093D3028EC0E091F50281E08E0F809371
:1030B000F5028091BB00F0E0EC52FD4F80839091CF
:1030C000F5028091F4026EC0E091F50281E08E0F6E
:1030D0008093F5028091BB00F0E0EC52FD4F8083BD
:1030E0008091180381116DC081E08093170384EAF9
:1030F00061C083E0809319031092D202CFCF8091F8
:10310000D202803208F051C0E091D20281E08E0FED
:103110008093D2028091BB00F0E0EE54FD4F80839B
:10312000BDCF85EC8093BC00109219038091D20230
:10313000803230F4E091D202F0E0EE54FD4F108284
:103140006091D20270E0E0911E03F0911F0382EBC8
:1031500092E009951092D20236C084E08093190360
:103160001092B1021092B002E0912003F09121037D
:1031700009958091B002811105C081E08093B00271
:1031800010929002E091B10281E08E0F8093B10223
:10319000F0E0E057FD4F80818093BB009091B10239
:1031A0008091B002981708F479CF85E88093BC002D
:1031B0000AC085EC8093BC001092190304C01092E1
:1031C000D3020E949417FF91EF91BF91AF919F910D
:1031D0008F917F916F915F914F913F912F910F90C0
:1031E0000FBE0F901F9018954091B002262F30E02F
:1031F000240F311D21323105DCF4209119032430D4
:10320000C9F4FC0180E090E0861758F43091B002D8
:103210002191DC01A057BD4FA30FB11D2C93019646
:10322000F3CF8091B002680F6093B00280E0089500
:1032300081E0089582E00895EF92FF920F931F932B
:10324000CF93DF9327E1289FE001299FD00D112420
:10325000CE010A960E942A31833209F509E712E06D
:103260007E0187E1E80EF11CCE15DF0548F4CE01A2
:103270000A960E942A31F80181938F012196F4CF9A
:1032800080918D0280930D01805380930C01809179
:103290008E0280930B0180918F0280930A01DF914F
:1032A000CF911F910F91FF90EF9008950F931F936F
:1032B000CF93DF938FE890E00E94822A80912703CA
:1032C000882309F44BC06DE870E08AED93E00E941A
:1032D000F92880912603811147C081E0809326035D
:1032E00080E090E00E942A31833229F0809104012D
:1032F0008332D1F50FC004E011E0C0E0D0E0CE0190
:103300000E942A31F80181938F012196C630D105A0
:10331000B1F7ECCF81E890E00E94822A809105010C
:1033200080930D018091060180930C01809107012B
:1033300080930A018091080180930B01809109011B
:1033400080930E018F3F19F410922F030DC094E06B
:1033500090932F0390E00E941C1906C06FE770E065
:103360008AED93E00E94F92860910C018AED93E0C8
:103370000E94962060910D018AED93E00E949620B4
:1033800060910B018AED93E00E94962060910A0102
:103390008AED93E00E9496208091290390912A0360
:1033A000A0912B03B0912C030196A11DB11D809318
:1033B000290390932A03A0932B03B0932C03DF914E
:1033C000CF911F910F910895CF92DF92EF92FF92CC
:1033D0000F931F93CF93DF93CDB7DEB728970FB628
:1033E000F894DEBF0FBECDBF81E0809308048EE667
:1033F00090E09093FB038093FA0388E190E0909330
:10340000FD038093FC0380916902813051F5609146
:103410000C012DE7629FB0011124CB01770FAA0B9D
:10342000BB0BBC01CD01605C73468F4F9F4F2AE000
:1034300030E040E050E00E94AD3169017A0180EE59
:10344000C80E82E2D81E82E0E81EF11C8FEF97E0E2
:1034500090930104809300041092030410920204DC
:103460002BC060910D019DE7699FB0011124CB0134
:10347000770FAA0BBB0BBC01CD01605C73468F4F6D
:103480009F4F2AE030E040E050E00E94AD316901FA
:103490007A0180EEC80E82E2D81E82E0E81EF11C9E
:1034A0008FEF97E090930104809300048FEF9FEFDC
:1034B0009093030480930204C701B60128EE33E021
:1034C00040E050E00E94AD317F936F933F932F9384
:1034D00085E491E09F938F938E010F5F1F4F1F93A1
:1034E0000F930E94DE33B80186EE93E00E941D29FF
:1034F00084E08093080483E090E09093FB03809342
:10350000FA0384E190E09093FD038093FC038091A3
:1035100069020FB6F894DEBF0FBECDBF813051F502
:1035200060910D013DE7639FB0011124CB01770F3E
:10353000AA0BBB0BBC01CD01605C73468F4F9F4F44
:103540002AE030E040E050E00E94AD3169017A01AC
:1035500080EEC80E82E2D81E82E0E81EF11C8FEFDA
:1035600097E090930104809300041092030410925A
:10357000020451C0823011F560910C019DE7699FF2
:10358000B0011124CB01770FAA0BBB0BBC01CD01FD
:10359000605C73468F4F9F4F2AE030E040E050E080
:1035A0000E94AD3169017A0180EEC80E82E2D81E18
:1035B00082E0E81EF11C80E098EF23C0833059F5CB
:1035C00060915A029DE76902B0011124CB01770F87
:1035D000AA0BBB0BBC01CD01605C73468F4F9F4FA4
:1035E0002AE030E040E050E00E94AD3169017A010C
:1035F00080EEC80E82E2D81E82E0E81EF11C8FE148
:1036000090E090930104809300048FEF9FEF9093DC
:10361000030480930204C701B60128EE33E040E0C2
:1036200050E00E94AD317F936F933F932F9385E4D9
:1036300091E09F938F931F930F930E94DE33B80105
:1036400086EE93E00E941D290FB6F894DEBF0FBEF0
:10365000CDBF80912F03813051F41092010410925C
:1036600000048FEF97E090930304809302049091FD
:103670000C0180910D01981748F462E171E086EE2B
:1036800093E00E94F92882E08093280390910C0136
:1036900080910D01891748F460E171E086EE93E0B6
:1036A0000E94F92881E08093280390910C01809179
:1036B0000D01981308C06EE071E086EE93E00E9461
:1036C000F9281092280380912F03813051F42FEFB5
:1036D00037E0309301042093000410920304109209
:1036E00002049EEF980F923050F410920104109251
:1036F00000042FEF37E0309303042093020491E09D
:10370000909308042EE630E03093FB032093FA03F5
:1037100022E230E03093FD032093FC03833019F460
:103720006AE071E002C066E071E086EE93E00E941C
:10373000F92880916902823021F080912F03833033
:1037400039F4E0910B0136E0E39FF001112406C04B
:10375000E0910A0186E0E89FF0011124E35FFB4F4E
:10376000448155816081718186EE93E00E94D32669
:1037700080912F0320EE3FEF30930104209300044B
:10378000109203041092020490910E019F3FA9F140
:10379000843099F582E08093080485E090E090936E
:1037A000FB038093FA038EE290E09093FD038093F5
:1037B000FC036AE772E086EE93E00E941D2964E054
:1037C00071E086EE93E00E94F92881E0809308047E
:1037D0008CE390E09093FB038093FA0384E390E002
:1037E0009093FD038093FC0361E872E086EE93E022
:1037F0000E941D2962E071E026C082E080930804E7
:1038000085E090E09093FB038093FA038EE290E0D2
:103810009093FD038093FC0369EF70E086EE93E0E4
:103820000E94F92881E0809308048CE390E0909353
:10383000FB038093FA0384E390E09093FD0380936D
:10384000FC0366EE70E086EE93E00E94F92828966D
:103850000FB6F894DEBF0FBECDBFDF91CF911F91A1
:103860000F91FF90EF90DF90CF900895EF92FF922D
:103870000F931F93CF93DF93C6EED3E00A891B8982
:1038800028893989E12CF12C40E050E060E070E0BB
:10389000CE010E940B2182E08AA31D8A1C8A1F8A06
:1038A0001E8A8FE190E09B8F8A8F80E29DEF9D8F33
:1038B0008C8F81E08BA380E2E82E8DEFF82E00E163
:1038C00010E020EA30E040E050E060E070E0CE013F
:1038D0000E940B216FE471E0CE010E941D2964E675
:1038E00071E0CE01DF91CF911F910F91FF90EF908A
:1038F0000C941D29CF92DF92EF92FF921F93CF93EA
:10390000DF9340EE5FEF60E570E08EE490E00E94B0
:103910005B2AC6EED3E011E01AA389E590E09D8B07
:103920008C8B85E4C82ED12CDF8ACE8A90EEE92ECE
:1039300097E0F92EFB8EEA8E1D8E1C8E1BA364E78A
:1039400070E0CE010E94F92840E058EF6EE470E08C
:1039500080E090E00E945B2A1AA387E090E09D8BB4
:103960008C8BDF8ACE8AFB8EEA8E1D8E1C8E1BA36B
:1039700068E670E0CE01DF91CF911F91FF90EF904C
:10398000DF90CF900C94F928AF92BF92CF92DF9244
:10399000EF92FF920F931F93CF93DF9300D000D04D
:1039A000CDB7DEB709E512E0C801895592403091E4
:1039B0001C0320911D03321741F08AED93E00E9411
:1039C0006520F80181938F01EFCFFC01E75AFD4F8D
:1039D00010824E970CF0BFC280915902833209F0D9
:1039E000BAC287ED90E00E94822A81E080930904A8
:1039F00080912703811102C00E94361C81E08093D0
:103A0000270390915B0290930C0190915C0290933C
:103A10000D0190915D0290930B0190915E02909345
:103A20000A018093080483E090E09093FB03809365
:103A3000FA0380E590E09093FD038093FC0360918E
:103A40005A02FDE76F02B0011124CB01770FAA0BD8
:103A5000BB0BBC01CD0177508A4E9F4F2AE030E06E
:103A600040E050E00E94AD3180E098EF9093010477
:103A700080930004109203041092020462ED70E03F
:103A800086EE93E029833A834B835C830E94F92876
:103A90008FEF9FEF90930104809300041092030432
:103AA0001092020429813A814B815C81CA01B901DB
:103AB00028EE33E040E050E00E94AD316B017C0124
:103AC000CA01B9010E94F82A60ED70E086EE93E029
:103AD0000E94F928C701B6010E94F82A8091690264
:103AE000823054F080912F03843010F410922F0311
:103AF000EE24EA94FE2C02C0E12CF12C0CE110E043
:103B000020EA30E042E150E060E070E086EE93E0D1
:103B10000E940B210E94E41981E08093080483E055
:103B200090E09093FB038093FA0384E690E09093F7
:103B3000FD038093FC0380E098EF90930104809351
:103B4000000410920304109202046BEC70E086EE05
:103B500093E00E94F9288FEF9FEF909301048093E8
:103B60000004109203041092020480915F028A30D4
:103B70001CF480E30E94ED2A80915F020E94222BB8
:103B80008AE30E94ED2A809160028A301CF480E36F
:103B90000E94ED2A809160020E94222B8AE30E94FB
:103BA000ED2A809161028A301CF480E30E94ED2AA4
:103BB000809161020E94222BDD24D394D0920804CC
:103BC00051E5E52EF12CF092FB03E092FA0384E636
:103BD00090E09093FD038093FC0300EE1FEF1093A1
:103BE000010400930004109203041092020466EC96
:103BF00070E086EE93E00E94F928AA24AA94BA2CD9
:103C0000B0920104A09200041092030410920204E6
:103C1000809162020E94222B62EC70E086EE93E0BB
:103C20000E94F928D0920804F092FB03E092FA0374
:103C300080E590E09093FD038093FC0310930104D2
:103C40000093000410920304109202046DEB70E0E4
:103C500086EE93E00E94F928B0920104A09200043D
:103C60001092030410920204809163020E94222B9E
:103C70008EE20E94ED2A809164028A301CF480E377
:103C80000E94ED2A809164020E94222B809165029D
:103C90008A301CF480E30E94ED2A809165020E9424
:103CA000222B81E08093080481E590E09093FB0350
:103CB0008093FA038AE590E09093FD038093FC03E0
:103CC00080EE9FEF90930104809300041092030410
:103CD0001092020468EB70E086EE93E00E94F928EF
:103CE0008FEF9FEF909301048093000410920304E0
:103CF00010920204809166020E94222B8EE20E94A2
:103D0000ED2A809167028A301CF480E30E94ED2A3C
:103D1000809167020E94222B809168028A301CF4F5
:103D200080E30E94ED2A809168020E94222BC090BD
:103D30006A02D12CE12CF12CFC2CEE24DD24CC24C5
:103D400080916B0290E0A0E0B0E0DC019927882729
:103D5000C80ED91EEA1EFB1E80916C0290E0A0E006
:103D6000B0E0BA2FA92F982F88278C0D9D1DAE1D6E
:103D7000BF1D20916D026C017D01C20ED11CE11CA2
:103D8000F11C81E08093080481E590E09093FB03AF
:103D90008093FA038EE690E09093FD038093FC03FA
:103DA00080EE9FEF9093010480930004109203042F
:103DB0001092020463EB70E086EE93E00E94F92813
:103DC0008FEF9FEF909301048093000410920304FF
:103DD00010920204C701B60124E630E040E050E052
:103DE0000E94AD31CA01B9010E94F82A61EB70E06E
:103DF00086EE93E00E94F928C701B601F7FE07C0DE
:103E000090958095709561957F4F8F4F9F4F24E6D9
:103E100030E040E050E00E94AD310E94F82A6FEAA5
:103E200070E086EE93E00E94F9286BEA70E086EE7F
:103E300093E00E94F92889E0E0E7F2E0A2E5B2E031
:103E400001900D928A95E1F710925C02DD24D394E3
:103E5000D092080483E0E82EF12CF092FB03E0926C
:103E6000FA038AE590E09093FD038093FC0300E061
:103E700018EF1093010400930004109203041092B1
:103E8000020466EA70E086EE93E00E94F928AA2414
:103E9000AA94BA2CB0920104A092000410920304D8
:103EA0001092020462E572E086EE93E00E941D2902
:103EB000D0920804F092FB03E092FA038EE690E0C1
:103EC0009093FD038093FC0310930104009300047E
:103ED000109203041092020461EA70E086EE93E00F
:103EE0000E94F928B0920104A092000410920304E9
:103EF0001092020480916F020E94ED2A80E20E94DB
:103F0000ED2A109301040093000410920304109210
:103F100002046CE970E086EE93E00E94F928B0920A
:103F20000104A092000410920304109202048091F4
:103F30006E020E94222B0F900F900F900F90DF9136
:103F4000CF911F910F91FF90EF90DF90CF90BF9096
:103F5000AF900C947A1C0F900F900F900F90DF9100
:103F6000CF911F910F91FF90EF90DF90CF90BF9076
:103F7000AF900895FC01808991896817790708F04E
:103F80005DC0828993894817590708F057C02A985D
:103F9000419881A190E086179707D1F08AE28EBD03
:103FA0000000009601D001C0089561A32A9A1EBCAA
:103FB00000000096009601D001C008958581680F29
:103FC0006EBD00000096009601D001C008952A98A9
:103FD00080A190E084179507D1F08BE28EBD0000A0
:103FE000009601D001C0089540A32A9A1EBC00008B
:103FF0000096009601D001C008958681480F4EBDFD
:1040000000000096009601D001C008952A988CE225
:104010008EBD00960096009601D001C008952A9AA0
:104020003EBD02D001D001C0089500002EBD0000A9
:104030000096009601D001C00895419A0895E0913C
:104040002403F0912503309729F010921B0310925E
:104050001A0309940895CF93DF93AC01E0912203F2
:10406000F09123033097F1F090911D0380911C0390
:104070009817C0F090E0292F30E02617370754F446
:10408000D901A950BD4FEA01C20FD31F88818C937B
:104090009F5FF1CF10921D0360931C03CB01DF9152
:1040A000CF910994DF91CF9108950895E0911D0378
:1040B00080911C03E81730F4F0E0E950FD4F808157
:1040C00090E008958FEF9FEF089590911D038091E8
:1040D0001C03981750F4E92FF0E0E950FD4F2081C0
:1040E00030E09F5F90931D0302C02FEF3FEFC901A7
:1040F000089580911C0390E020911D03821B91097B
:1041000008950895CF93DF9300D0CDB7DEB7CB01EC
:10411000642F49835A830E94F4184981842F5A815D
:10412000952F0F900F90DF91CF910895CF93DF934C
:104130001F92CDB7DEB7698361E0CE0101960E9480
:10414000F41881E090E00F90DF91CF9108950F93E4
:10415000FC018FEF80A381A32A9841988AE28EBD4B
:1041600000960096009601D001C008952A9A1EBCC0
:1041700000000096009601D001C008958581680F67
:104180006EBD02D001D001C0089500001EBC000029
:104190000096009601D001C008958581280F2EBD9C
:1041A00000000096009601D001C008952A988BE285
:1041B0008EBD00960096009601D001C008952A9AFF
:1041C0001EBC00000096009601D001C008958681B3
:1041D000480F4EBD02D001D001C0089500001EBCA2
:1041E00000000096009601D001C008958681080F56
:1041F0000EBD00000096009601D001C008952A98D7
:104200008CE28EBD00000096009601D001C008959A
:104210002A9A0F910895CF92DF92EF92FF920F9317
:104220001F93CF93DF936901E8018A010C0F1D1FD3
:10423000015011099B012C0D3D1D215031090E9497
:10424000A720CC16DD062CF49C2D8D2D6E01C92FD8
:10425000D82F219790F0C601009771F0FEBC02D0D4
:1042600001D001C008950000EEBC0096009601D078
:1042700001C00895019791F7ECCF419ADF91CF915A
:104280001F910F91FF90EF90DF90CF9008952F92A4
:104290003F924F925F926F927F928F929F92AF92D6
:1042A000BF92CF92DF92EF92FF920F931F93CF9323
:1042B000DF93CDB7DEB767970FB6F894DEBF0FBEBA
:1042C000CDBF6D3009F42EC5DC0192964C91062FBE
:1042D00010E0423059F4F801E15BF24D249130E0F6
:1042E0002A5F3F4F287FE0E1F0E01BC0E5E04E9FF2
:1042F000D0011124FD01EC5BF24D25913491F801C0
:10430000B097E20FF31F2491FD01EA5BF24DE491B7
:10431000413019F030E0F0E004C0E8E0F0E026E0E1
:1043200030E0DC0193969C909397C92CD12CEC9DA6
:104330007001ED9DF00CFC9DF00C11245696ED9152
:10434000FC9157976A3059F4EE0EFF1E5796FC9277
:10435000EE92569755961C921E925497E3C4DC0138
:1043600096965C9196975523F1F02C9D50012D9DCA
:10437000B00C3C9DB00C112454962D913C91559756
:104380002A0D3B1D5096AD90BC9051972A153B05C8
:1043900050F0EE0EFF1E5796FC92EE9256975596F1
:1043A0001C921E9254971C0150E0FC0146885788CD
:1043B00064887588248D358D38872F83A28CB38CC3
:1043C0004130510509F03BC1808991896816790611
:1043D0000CF02EC182899389481659060CF028C129
:1043E000C30136E0939E800D911D11241816190605
:1043F0000CF01EC1C60173E0880F991F7A95E1F792
:10440000840D951D181619060CF012C141E04B875A
:104410008F8198858A159B0509F41B86E5E06E9FC0
:10442000D0011124BA87A987F1E09F12CDC0930172
:104430002B5F3F4F79013B85332309F44CC0820148
:10444000085F1F4F9701A201B301C1010E94A7207D
:104450009E012F5F3F4FD90180E090E0E985FA850A
:10446000E80FF91FE957F84DE491ED930196853077
:104470009105A1F71E826B2D588598E081E075E0CB
:10448000720FF9014191482351F00DB407FEFDCFA1
:104490006EBD00000DB407FEFDCFAEBC0AC00DB46A
:1044A00007FEFDCF5EBD00000DB407FEFDCF4F81BE
:1044B0004EBD7E13E7CF880F0DB407FEFDCF5EBD66
:1044C0000DB407FEFDCFAF81AEBD9150D1F60DB456
:1044D00007FEFDCFADC04301E985FA85E619F7096E
:1044E000FA87E98792012F5F3F4F3E872D87A20110
:1044F0004E5F5F4F58874F8382010D5F1F4FB201A0
:104500006C5F7F4F7C876B87C2010596998B888B88
:10451000D2011696BB8BAA8B6201B7E0CB0ED11CE1
:10452000E985FA85E80DF91DE957F84D749070FE9C
:1045300006C09501A201B401C1010E94BA1F71FE1B
:1045400007C095014D855E85B401C1010E94BA1F67
:1045500072FE07C095014F815885B401C1010E94C8
:10456000BA1F73FE06C09501A801B401C1010E94E3
:10457000BA1F74FE07C095014B855C85B401C1016B
:104580000E94BA1F75FE07C0950148895989B40178
:10459000C1010E94BA1F76FE07C095014A895B8956
:1045A000B401C1010E94BA1F77FE06C09501A601A1
:1045B000B401C1010E94BA1FEFEF8E1A9E0A8E1439
:1045C0009F0409F0ADCF34C043011E861D86ED85E2
:1045D000FE8529853A85E20FF31FE957F84D34919E
:1045E000388B320148E04A8B588950FF02C0750170
:1045F00005C06B85662349F0EF80F884860196013B
:10460000A301B401C1010E940B2178897695788BB2
:104610008A8981508A8B6C0C7D1C8111E5CFAD8518
:10462000BE851196BE87AD878C0C9D1C159779F6BB
:10463000F10183A1F6E08F9FC001112468C3C80176
:1046400080979C01220F331F42305105A1F4F901DC
:10465000EE57F34D259134913E872D87FC01E159AA
:10466000F24DE4916E2F70E07A87698780E190E0E7
:104670009C878B8727C065E0649F8001659F100D34
:104680001124F801EE5BF24D65917491260F371FEE
:10469000F901A591B491BE87AD87F801EC5BF24DAD
:1046A00025913491F901E80FF91FE4912E2F30E0A4
:1046B0003A872987F801EA5BF24D0491602F70E098
:1046C0007C876B87AA8ABC8A4230510509F0F4C105
:1046D000A985BA85AC9DC001AD9D900DBC9D900D86
:1046E0001124AC01460D571DF10120893189421773
:1046F000530708F00CC3CD0106969C0143E03595A5
:1047000027954A95E1F7398B288B4F815885A41658
:10471000B50621F051E0951609F473C11D8A1C8A73
:104720001B8A1A8A4A895B896B857C8546175707DD
:1047300009F4E3C2D1015C96ED90FC905D975A9626
:104740008D919C915B978E159F0589F093960C91A6
:1047500010E0E985FA85E09F9001E19F300DF09F20
:10476000300D1124A201B301C1010E940B212C893B
:104770003D894D855E85240F351F3F8B2E8B530160
:1047800018861F824F81588568897989461757078F
:1047900009F426C1EF81F8856E897F89E60FF71F3E
:1047A0009490992009F412C1D10193962C9193977A
:1047B000213009F066C097FE09C05A962D913C91B0
:1047C0005B97A201B501C1010E94BA1F96FE0AC003
:1047D000F101228D338DA201B5016F5F7F4FC101C1
:1047E0000E94BA1F95FE0CC0D1015A962D913C91A2
:1047F0005B97A201B5016E5F7F4FC1010E94BA1F96
:1048000094FE0AC0F101228D338DA201B5016D5FC6
:104810007F4FC1010E94BA1F93FE0CC0D1015A966E
:104820002D913C915B97A201B5016C5F7F4FC10157
:104830000E94BA1F92FE0AC0F101228D338DA2019F
:10484000B5016B5F7F4FC1010E94BA1F91FE0CC082
:10485000D1015A962D913C915B97A201B5016A5FF7
:104860007F4FC1010E94BA1F90FEB0C0F101228D9E
:10487000338DA201B501695F7F4FC1010E94BA1F4C
:10488000A5C030E0C50186199709829F6001839F0A
:10489000D00C929FD00C1124C60CD71C97FE0BC0D5
:1048A000D1015A96ED90FC905B978901A201B60167
:1048B000C1010E940B2196FE0DC0F10123A130E041
:1048C000E28CF38CB601620F731F8901A201C10152
:1048D0000E940B2195FE13C0D10193962C919397C2
:1048E00030E05A96ED90FC905B97B901660F771F08
:1048F0006C0D7D1D8901A201C1010E940B2194FE56
:1049000011C0F10183A1282F30E0E28CF38CB601B5
:10491000F3E08F9F600D711D11248901A201C10177
:104920000E940B2193FE15C0D10193968C91939711
:104930005A96ED90FC905B97282F30E0B601B4E0DA
:104940008B9F600D711D11248901A201C1010E947C
:104950000B2192FE11C0F10183A1282F30E0E28CDF
:10496000F38CB601F5E08F9F600D711D1124890154
:10497000A201C1010E940B2191FE15C0D1019396A5
:104980008C919397282F30E05A96ED90FC905B978E
:10499000B601B6E08B9F600D711D11248901A20143
:1049A000C1010E940B2190FE11C0F10183A1282FAB
:1049B00030E0E28CF38CB601F7E08F9F600D711D43
:1049C00011248901A201C1010E940B212F81388588
:1049D0002F5F3F4F38872F8338E0A30EB11CD2CE14
:1049E000D10193968C91480E511CEA89FB8931962E
:1049F000FB8BEA8B2C893D89260F371F3D8B2C8B37
:104A000091CE8201015011098B859C85080F191FD9
:104A10002889398983E0220F331F8A95E1F7260D13
:104A2000371D21503109A201B301C1010E94A72005
:104A3000188520E030E040E050E08B859C854817E9
:104A4000590709F435C0AD85BE85A20FB31F80E0BC
:104A500090E0688979898617970729F1FC01EA0FA8
:104A6000FB1FE49168E070E0F0E80F2F0E2359F08F
:104A70000DB407FEFDCF0C890EBD00000DB407FE7E
:104A8000FDCF0A8909C00DB407FEFDCF1EBD000091
:104A90000DB407FEFDCF0F810EBDF6956150710973
:104AA00021F70196D6CF4F5F5F4F260F371FC5CF37
:104AB0000DB407FEFDCF20C11EBCAB85BC85E985CA
:104AC000FA85AE9F4001AF9F900CBE9F900C1124C1
:104AD000D10193968C9193975C96ED90FC905D97A5
:104AE0005A962D913C915B97813021F42E153F050C
:104AF00009F0B9C02E153F05C1F090E0EB85FC85AB
:104B0000E89F8001E99F100DF89F100D1124498541
:104B10005A85489F9001499F300D589F300D1124B0
:104B2000A201B301C1010E940B21D10193968C9186
:104B3000889FB02D1124BF8781508F83A12CB12C69
:104B4000E82FF0E0FF8BEE8BA814B9040CF087C0BF
:104B5000ED85FE8584913196FE87ED8787FF7BC0CA
:104B60008F778F5F888BFF81FF23F1F0D1019396C0
:104B70002C9130E0C50169857A850E947731829F4A
:104B80007001839FF00C929FF00C1124E60CF71C2F
:104B9000629F6001639FD00C729FD00C1124C40CE3
:104BA000D51CB889BB8737C0C50169857A850E9445
:104BB00077317C01E60CF71C6B01F1CF0DB407FED9
:104BC000FDCF0E891F890C0D1D1D2E893F892E0DCD
:104BD0003F1DA601B701C1010E94A720EF81EE236E
:104BE00059F18F858150E8F4D10193968C9190E032
:104BF000E80EF91EE985FA85E89F9001E99F300DDE
:104C0000F89F300D1124260D371DE216F30618F01B
:104C1000C80ED91E7301FB85F150FB87FF3F71F66B
:104C200016C00DB407FEFDCFFC89FEBD0DB407FE16
:104C3000FDCF0A890EBDD6CF0DB407FEFDCF2C895E
:104C40002EBD0DB407FEFDCF3A893EBDCDCF0889FC
:104C5000A00EB11C79CF8F5FA80EB11C75CF0DB41B
:104C600007FEFDCF49C08201015011092B853C850B
:104C7000020F131F93012150310949855A85240FD2
:104C8000351FA201B301C1010E94A7201814190405
:104C90000CF02FC02D853E852F5F3F4FED85FE85A3
:104CA000849187FF0CC08F778F5F90E0881A990AF4
:104CB000D1015A964C915A975B965C9107C08F5FD1
:104CC00090E0881A990AF101448D558D009771F092
:104CD0005EBD02D001D001C0089500004EBD009617
:104CE000009601D001C00895019791F73E872D8766
:104CF000CDCF0DB407FEFDCF419AD10193962C91F3
:104D0000E985FA852E9FC0012F9F900D1124D101B6
:104D100054962D913C915597820F931F55969C93D5
:104D20008E93549781E090E067960FB6F894DEBFBB
:104D30000FBECDBFDF91CF911F910F91FF90EF90EC
:104D4000DF90CF90BF90AF909F908F907F906F90AB
:104D50005F904F903F902F9008953FB7F8948091C7
:104D6000390390913A03A0913B03B0913C0326B5DF
:104D7000A89B05C02F3F19F00196A11DB11D3FBF93
:104D8000BA2FA92F982F8827820F911DA11DB11D21
:104D9000BC01CD0142E0660F771F881F991F4A951D
:104DA000D1F708950895CF92DF92EF92FF920F937B
:104DB0001F93CF93DF936C017A018B01C0E0D0E0A9
:104DC000CE15DF0589F0D8016D918D01D601ED91E9
:104DD000FC910190F081E02DC6010995892B11F419
:104DE0007E0102C02196ECCFC701DF91CF911F91C8
:104DF0000F91FF90EF90DF90CF900895FC01538DBD
:104E0000448D252F30E0842F90E0821B930B5417A4
:104E100010F0CF96089501970895FC01918D828D31
:104E2000981761F0828DDF01A80FB11D5D968C91FE
:104E3000928D9F5F9F73928F90E008958FEF9FEF09
:104E40000895FC01918D828D981731F0828DE80FC5
:104E5000F11D858D90E008958FEF9FEF0895FC017F
:104E6000918D228D892F90E0805C9F4F821B91094C
:104E70008F73992708958DE393E00E942F2721E0F7
:104E8000892B09F420E0822F0895FC01848DDF0135
:104E9000A80FB11DA35ABF4F2C91848D90E00196AD
:104EA0008F739927848FA689B7892C93A089B1899C
:104EB0008C9180648C93938D848D981306C00288A6
:104EC000F389E02D80818F7D80830895EF92FF929A
:104ED0000F931F93CF93DF93EC0181E0888F9B8D1D
:104EE0008C8D981305C0E889F989808185FD24C0DF
:104EF000F62E0B8D10E00F5F1F4F0F731127E02E62
:104F00008C8DE8120CC00FB607FCFACFE889F9893E
:104F1000808185FFF5CFCE010E944527F1CF8B8D93
:104F2000FE01E80FF11DE35AFF4FF0820B8FEA8973
:104F3000FB898081806207C0EE89FF896083E889F0
:104F4000F98980818064808381E090E0DF91CF9156
:104F50001F910F91FF90EF900895CF93DF93EC0195
:104F6000888D8823C9F0EA89FB89808185FD05C089
:104F7000A889B9898C9186FD0FC00FB607FCF5CFC3
:104F8000808185FFF2CFA889B9898C9185FFEDCF0B
:104F9000CE010E944527E7CFDF91CF91089580E0B1
:104FA00090E0892B29F00E943B2781110C9400008E
:104FB00008950E94C9338F929F92AF92BF92CF9271
:104FC000DF92EF92FF926B017C010E94AD264B01B4
:104FD0005C01C114D104E104F104F1F00E94AD269A
:104FE000DC01CB0188199909AA09BB09883E9340C5
:104FF000A105B10570F321E0C21AD108E108F1085A
:1050000088EE880E83E0981EA11CB11CC114D10447
:10501000E104F10419F7DDCFFF90EF90DF90CF901E
:10502000BF90AF909F908F9008951F920F920FB6F0
:105030000F9211242F933F938F939F93AF93BF931E
:105040008091350390913603A0913703B0913803D6
:105050003091340323E0230F2D3720F40196A11D56
:10506000B11D05C026E8230F0296A11DB11D209396
:1050700034038093350390933603A0933703B093A2
:1050800038038091390390913A03A0913B03B0918A
:105090003C030196A11DB11D8093390390933A03FF
:1050A000A0933B03B0933C03BF91AF919F918F912D
:1050B0003F912F910F900FBE0F901F901895EF9278
:1050C000FF920F931F93CF93DF93EC011982188205
:1050D0001B821A821D821C8261157105A9F17B0158
:1050E000FB0101900020E9F731978F01061B170B98
:1050F000B8016F5F7F4F80E090E00E94FF32009721
:1051000059F0998388831B830A832C813D81232B4B
:1051100081F4FC0110820DC088819981009711F003
:105120000E946732198218821D821C821B821A8299
:105130000BC01D830C83B701DF91CF911F910F919D
:10514000FF90EF900C94D733DF91CF911F910F9187
:10515000FF90EF9008951F920F920FB60F921124B7
:105160002F933F934F935F936F937F938F939F936F
:10517000AF93BF93EF93FF93E0910201F09103018E
:105180000995FF91EF91BF91AF919F918F917F9181
:105190006F915F914F913F912F910F900FBE0F90A4
:1051A0001F9018951F920F920FB60F9211242F93F4
:1051B0003F934F935F936F937F938F939F93AF939F
:1051C000BF93EF93FF93E0910001F09101010995E6
:1051D000FF91EF91BF91AF919F918F917F916F91CF
:1051E0005F914F913F912F910F900FBE0F901F90A5
:1051F0001895EF92FF920F931F93CF93DF938C013B
:105200007B01C0E0D0E0F701EC0FFD1F6491662345
:1052100061F0D801ED91FC910190F081E02DC80181
:105220000995892B11F02196EECFCE01DF91CF9118
:105230001F910F91FF90EF9008956115710579F01E
:10524000FB0101900020E9F73197AF01461B570B96
:10525000DC01ED91FC910280F381E02D099480E066
:1052600090E008951F920F920FB60F9211242F9382
:105270003F934F935F936F937F938F939F93AF93DE
:10528000BF93EF93FF938DE393E00E944527FF9137
:10529000EF91BF91AF919F918F917F916F915F91AE
:1052A0004F913F912F910F900FBE0F901F90189527
:1052B0001F920F920FB60F9211242F938F939F93EB
:1052C000EF93FF93E0914D03F0914E038081E091C5
:1052D0005303F091540382FD12C0908180915603D4
:1052E0008F5F8F7320915703821751F0E09156031F
:1052F000F0E0E35CFC4F958F8093560301C0808102
:10530000FF91EF919F918F912F910F900FBE0F9072
:105310001F9018959CB59093EF039091EE039CBD60
:105320008EBD00000DB407FEFDCF8091EF038CBD54
:105330000895833081F028F4813099F08230A1F013
:1053400008958730A9F08830B9F08430D1F4809185
:1053500080008F7D03C0809180008F7780938000D4
:10536000089584B58F7702C084B58F7D84BD08957C
:105370008091B0008F7703C08091B0008F7D8093C3
:10538000B00008950F931F93CF93DF93EB0100912B
:10539000F8031091F9039C0149E450E0BC0186EE4A
:1053A00093E00E94A72082E390E0009771F0DEBDB9
:1053B00002D001D001C008950000CEBD0096009635
:1053C00001D001C00895019791F7419ADF91CF91E3
:1053D0001F910F910895EF92FF920F931F93CF9318
:1053E000DF93EA01F22EE32E2091F6033091F703CA
:1053F0008B01AB01BC0186EE93E00E94A720CE0199
:10540000009771F0EEBC02D001D001C008950000F9
:10541000FEBC0096009601D001C00895019791F757
:10542000419ADF91CF911F910F91FF90EF900895D6
:105430008F929F92AF92BF920F931F93CF93DF9360
:10544000CDB7DEB7A1970FB6F894DEBF0FBECDBFC4
:1054500019A2423008F44AE08E010F5D1F4F842EDE
:10546000912CA12CB12CA50194010E948B31E62F27
:10547000B901CA0101501109EA3014F4E05D01C01C
:10548000E95CD801EC93232B242B252B61F7B80181
:1054900086EE93E00E941D29A1960FB6F894DEBF18
:1054A0000FBECDBFDF91CF911F910F91BF90AF90F5
:1054B0009F908F900895EF92FF920F931F93CF9339
:1054C000DF937C01EB018A019A01AB0169E470E092
:1054D0000E94EB299801AE016AE770E0C7010E94C3
:1054E000EB29B801C7010E94C229C7018C0F9D1F7B
:1054F000B8010197DF91CF911F910F91FF90EF902D
:105500000C94C229CF93DF93BC018DE393E00E94FA
:10551000F928EC0164E671E08DE393E00E941D2917
:105520008C0F9D1FDF91CF9108952A9A41980E9478
:105530008A29419A08952A9841980E948A29419A75
:105540000895CF92DF92EF92FF920F931F93CF9324
:10555000DF93EC012196FC01D490DD2009F434C0E6
:10556000FE0184910E949B2A7E01F2E0EF0EF11C65
:10557000FE013196C4918C2F8078C82ECF77870199
:10558000DC2FD15038F0F80184910E94952A0F5FEA
:105590001F4FF7CFC7018C0F911DEC01CC2091F06C
:1055A0008C010F5F1F4FFC0164916F3F21F070E091
:1055B00080E090E004C064EF71E080E090E00E9441
:1055C000DB27E801DA94C9CFDF91CF911F910F91CA
:1055D000FF90EF90DF90CF900895E091E603F09177
:1055E000E7030190F081E02D682F86EE93E00994A7
:1055F000CF92DF92EF92FF92CF93DF9397FF19C084
:105600006B017C018DE20E94ED2AEC016627772771
:10561000CB016C197D098E099F094AE00E94182A66
:105620008C0F9D1FDF91CF91FF90EF90DF90CF9077
:1056300008954AE0DF91CF91FF90EF90DF90CF90F7
:105640000C94182A682F70E080E090E04AE00C94F7
:10565000182ACF93DF93282F30E0F901EA54F14D57
:105660008491F901EE55F14DD491F901E257F14DD4
:10567000C491CC2391F081110E949929EC2FF0E084
:10568000EE0FFF1FEC57F14DA591B491EC91ED2376
:1056900081E090E021F480E002C080E090E0DF91C2
:1056A000CF9108951F93CF93DF93282F30E0F90116
:1056B000EA54F14D8491F901EE55F14DD491F9017F
:1056C000E257F14DC491CC23C9F0162F81110E94ED
:1056D0009929EC2FF0E0EE0FFF1FE658F14DA59150
:1056E000B4918FB7F894111105C09C91ED2FE095FE
:1056F000E92302C0EC91ED2BEC938FBFDF91CF91AA
:105700001F910895CF93DF9390E0FC01EE55F14D8A
:105710002491FC01E257F14D8491882361F190E0DE
:10572000880F991FFC01E059F14DC591D491FC01FE
:10573000E658F14DA591B491611109C09FB7F89455
:105740008881209582238883EC912E230BC06230C0
:1057500061F49FB7F8943881822F809583238883E2
:10576000EC912E2B2C939FBF06C08FB7F894E88145
:105770002E2B28838FBFDF91CF910895CF93DF9396
:10578000C7EFD4E02697888199810E94673284E030
:10579000CD30D807B9F7DF91CF910895CF93DF933C
:1057A0001F92CDB7DEB7789484B5826084BD84B58E
:1057B000816084BD85B5826085BD85B5816085BD0C
:1057C00080916E00816080936E00109281008091C4
:1057D000810082608093810080918100816080934C
:1057E0008100809180008160809380008091B10071
:1057F00084608093B1008091B00081608093B0009C
:1058000080917A00846080937A0080917A0082602F
:1058100080937A0080917A00816080937A008091F1
:105820007A00806880937A001092C10062E082E082
:105830000E94822B62E083E00E94822B62E084E07F
:105840000E94822B1FB7F89480913103811127C0E9
:10585000E8E9FEE28491ECEAFEE29491E82FF0E0C0
:10586000EE0FFF1FE059F14DA591B491EC91E923A2
:1058700021F461E08AE00E94522B61E08AE00E94FC
:10588000822B8CB580618CBD8CB580648CBD61E051
:105890008DE00E94822B61E08BE00E94822B809140
:1058A00031038F5F809331031FBF8CB58093EF036B
:1058B0008CB58C7F8CBD8DB581608DBD8CB58F7D99
:1058C0008CBD8CB5837F8CBD8CB58093EE038091AD
:1058D000F2031816FCF461E00E94522B65E070E0C0
:1058E00080E090E00E94DB2760E08091F2030E945C
:1058F000522B64E170E080E090E00E94DB2761E0E1
:105900008091F2030E94522B66E970E080E090E003
:105910000E94DB2783E08093EA0384E19EE20E94F9
:10592000A12A8091EA03811105C087E09EE20E94CE
:10593000A12A0CC0833089F487E09EE20E94A12A4C
:1059400086E30E949B2A80EC0E94952A82E0809345
:10595000EB0381E08093EC030FC0813029F48AEFE0
:105960009DE20E94A12A08C0823031F486E30E94A1
:105970009B2A80EC0E94952A8FEC9DE20E94A12A2E
:105980008DB58FEF809306048093070411E0109388
:105990000B0486E30E949B2A00910B04013011F155
:1059A00030F00230E9F1033009F44CC05EC0809160
:1059B000EA03823011F480EC0AC0833039F480ECC1
:1059C0000E94952A82E08093EB0337C088EC0E9406
:1059D000952A80E890E09093F7038093F60380EA9D
:1059E00090E019C08091EA03823011F480EA09C086
:1059F000833031F480EA0E94952A0093EB032FC094
:105A000088EA0E94952A80EA90E09093F7038093B9
:105A1000F60380E890E09093F9038093F80325C0A3
:105A20008091EA03823011F480E0D1CF833041F4D9
:105A300080E00E94952A0093EB031093EC03C9CFFA
:105A400088E0C5CF8091EA03823011F480E6D9CF97
:105A5000833049F480E60E94952A1093EB0382E09C
:105A60008093EC03D0CF88E6CCCF8FEF9FEF90935D
:105A70003303809332031092270310922603E091A0
:105A80004D03F0914E0382E08083E0914903F09151
:105A90004A031082E0914B03F0914C038FEC80831A
:105AA00010925503E0915103F091520386E08083F8
:105AB000E0914F03F0915003808180618083E091F9
:105AC0004F03F0915003808188608083E0914F0301
:105AD000F0915003808180688083E0914F03F091C2
